{
  "address": "0xe7f1725E7734CE288F8367e1Bb143E90bb3F0512",
  "abi": [
    {
      "inputs": [
        {
          "internalType": "address",
          "name": "feed",
          "type": "address"
        }
      ],
      "stateMutability": "nonpayable",
      "type": "constructor"
    },
    {
      "inputs": [],
      "name": "AcceptanceRequirements",
      "type": "error"
    },
    {
      "inputs": [],
      "name": "CallFail",
      "type": "error"
    },
    {
      "inputs": [],
      "name": "IDNotFound",
      "type": "error"
    },
    {
      "inputs": [],
      "name": "NotFunder",
      "type": "error"
    },
    {
      "stateMutability": "payable",
      "type": "fallback"
    },
    {
      "inputs": [
        {
          "internalType": "string",
          "name": "_name",
          "type": "string"
        },
        {
          "internalType": "uint256",
          "name": "_LimitInUSD",
          "type": "uint256"
        }
      ],
      "name": "create",
      "outputs": [],
      "stateMutability": "nonpayable",
      "type": "function"
    },
    {
      "inputs": [
        {
          "internalType": "uint256",
          "name": "Index",
          "type": "uint256"
        }
      ],
      "name": "getDonation",
      "outputs": [
        {
          "components": [
            {
              "internalType": "address",
              "name": "_address",
              "type": "address"
            },
            {
              "internalType": "string",
              "name": "name",
              "type": "string"
            },
            {
              "internalType": "uint256",
              "name": "LimitInUSD",
              "type": "uint256"
            },
            {
              "internalType": "uint256",
              "name": "AmountInWEI",
              "type": "uint256"
            },
            {
              "internalType": "uint256",
              "name": "Timestamp",
              "type": "uint256"
            }
          ],
          "internalType": "struct Donate.Info",
          "name": "",
          "type": "tuple"
        }
      ],
      "stateMutability": "view",
      "type": "function"
    },
    {
      "inputs": [],
      "name": "getPriceFeed",
      "outputs": [
        {
          "internalType": "contract AggregatorV3Interface",
          "name": "",
          "type": "address"
        }
      ],
      "stateMutability": "view",
      "type": "function"
    },
    {
      "inputs": [
        {
          "internalType": "uint256",
          "name": "_id",
          "type": "uint256"
        }
      ],
      "name": "participate",
      "outputs": [],
      "stateMutability": "payable",
      "type": "function"
    },
    {
      "inputs": [
        {
          "internalType": "uint256",
          "name": "_id",
          "type": "uint256"
        }
      ],
      "name": "withdraw",
      "outputs": [],
      "stateMutability": "nonpayable",
      "type": "function"
    },
    {
      "stateMutability": "payable",
      "type": "receive"
    }
  ],
  "transactionHash": "0x48f6202884892dedb5ce179f0a658f4eb9a30c58e1f6328ff77dcaadac9fdd9a",
  "args": [
    "0x5FbDB2315678afecb367f032d93F642f64180aa3"
  ],
  "numDeployments": 1,
  "solcInputHash": "ea8b2a399eb9b425417d181831211901",
  "bytecode": "0x60806040523480156200001157600080fd5b5060405162001545380380620015458339818101604052810190620000379190620000e8565b806000806101000a81548173ffffffffffffffffffffffffffffffffffffffff021916908373ffffffffffffffffffffffffffffffffffffffff160217905550506200011a565b600080fd5b600073ffffffffffffffffffffffffffffffffffffffff82169050919050565b6000620000b08262000083565b9050919050565b620000c281620000a3565b8114620000ce57600080fd5b50565b600081519050620000e281620000b7565b92915050565b6000602082840312156200010157620001006200007e565b5b60006200011184828501620000d1565b91505092915050565b61141b806200012a6000396000f3fe60806040526004361061004e5760003560e01c80632e1a7d4d1461005757806346f81a8714610080578063845c9306146100a95780639e87a5cd146100c5578063ef07a81f146100f057610055565b3661005557005b005b34801561006357600080fd5b5061007e600480360381019061007991906109fd565b61012d565b005b34801561008c57600080fd5b506100a760048036038101906100a29190610b70565b6104d6565b005b6100c360048036038101906100be91906109fd565b6105e1565b005b3480156100d157600080fd5b506100da6106cd565b6040516100e79190610c4b565b60405180910390f35b3480156100fc57600080fd5b50610117600480360381019061011291906109fd565b6106f6565b6040516101249190610d8b565b60405180910390f35b80600073ffffffffffffffffffffffffffffffffffffffff166001828154811061015a57610159610dad565b5b906000526020600020906005020160000160009054906101000a900473ffffffffffffffffffffffffffffffffffffffff1673ffffffffffffffffffffffffffffffffffffffff16036101d9576040517f844a752f00000000000000000000000000000000000000000000000000000000815260040160405180910390fd5b813373ffffffffffffffffffffffffffffffffffffffff166001828154811061020557610204610dad565b5b906000526020600020906005020160000160009054906101000a900473ffffffffffffffffffffffffffffffffffffffff1673ffffffffffffffffffffffffffffffffffffffff1614610284576040517fa598aebe00000000000000000000000000000000000000000000000000000000815260040160405180910390fd5b8262093a806001828154811061029d5761029c610dad565b5b9060005260206000209060050201600401546102b99190610e0b565b421115806103565750670de0b6b3a7640000600182815481106102df576102de610dad565b5b9060005260206000209060050201600201546102fb9190610e3f565b61035360008054906101000a900473ffffffffffffffffffffffffffffffffffffffff166001848154811061033357610332610dad565b5b90600052602060002090600502016003015461083890919063ffffffff16565b11155b1561038d576040517f7dca185f00000000000000000000000000000000000000000000000000000000815260040160405180910390fd5b6000600185815481106103a3576103a2610dad565b5b9060005260206000209060050201600301549050600185815481106103cb576103ca610dad565b5b9060005260206000209060050201600080820160006101000a81549073ffffffffffffffffffffffffffffffffffffffff02191690556001820160006104119190610911565b600282016000905560038201600090556004820160009055505060003373ffffffffffffffffffffffffffffffffffffffff168260405161045190610eb2565b60006040518083038185875af1925050503d806000811461048e576040519150601f19603f3d011682016040523d82523d6000602084013e610493565b606091505b50509050806104ce576040517f12fcf49600000000000000000000000000000000000000000000000000000000815260040160405180910390fd5b505050505050565b6104de610951565b8281602001819052508181604001818152505033816000019073ffffffffffffffffffffffffffffffffffffffff16908173ffffffffffffffffffffffffffffffffffffffff168152505042816080018181525050600181908060018154018082558091505060019003906000526020600020906005020160009091909190915060008201518160000160006101000a81548173ffffffffffffffffffffffffffffffffffffffff021916908373ffffffffffffffffffffffffffffffffffffffff16021790555060208201518160010190816105bb91906110c9565b506040820151816002015560608201518160030155608082015181600401555050505050565b80600073ffffffffffffffffffffffffffffffffffffffff166001828154811061060e5761060d610dad565b5b906000526020600020906005020160000160009054906101000a900473ffffffffffffffffffffffffffffffffffffffff1673ffffffffffffffffffffffffffffffffffffffff160361068d576040517f844a752f00000000000000000000000000000000000000000000000000000000815260040160405180910390fd5b34600183815481106106a2576106a1610dad565b5b906000526020600020906005020160030160008282546106c29190610e0b565b925050819055505050565b60008060009054906101000a900473ffffffffffffffffffffffffffffffffffffffff16905090565b6106fe610951565b6001828154811061071257610711610dad565b5b90600052602060002090600502016040518060a00160405290816000820160009054906101000a900473ffffffffffffffffffffffffffffffffffffffff1673ffffffffffffffffffffffffffffffffffffffff1673ffffffffffffffffffffffffffffffffffffffff16815260200160018201805461079190610ef6565b80601f01602080910402602001604051908101604052809291908181526020018280546107bd90610ef6565b801561080a5780601f106107df5761010080835404028352916020019161080a565b820191906000526020600020905b8154815290600101906020018083116107ed57829003601f168201915b5050505050815260200160028201548152602001600382015481526020016004820154815250509050919050565b6000806108448361086e565b9050670de0b6b3a7640000848261085b9190610e3f565b61086591906111ca565b91505092915050565b6000808273ffffffffffffffffffffffffffffffffffffffff1663feaf968c6040518163ffffffff1660e01b815260040160a060405180830381865afa1580156108bc573d6000803e3d6000fd5b505050506040513d601f19601f820116820180604052508101906108e09190611288565b505050915050670de0b6b3a76400006305f5e100826108ff9190611303565b610909919061136d565b915050919050565b50805461091d90610ef6565b6000825580601f1061092f575061094e565b601f01602090049060005260206000209081019061094d9190610996565b5b50565b6040518060a00160405280600073ffffffffffffffffffffffffffffffffffffffff168152602001606081526020016000815260200160008152602001600081525090565b5b808211156109af576000816000905550600101610997565b5090565b6000604051905090565b600080fd5b600080fd5b6000819050919050565b6109da816109c7565b81146109e557600080fd5b50565b6000813590506109f7816109d1565b92915050565b600060208284031215610a1357610a126109bd565b5b6000610a21848285016109e8565b91505092915050565b600080fd5b600080fd5b6000601f19601f8301169050919050565b7f4e487b7100000000000000000000000000000000000000000000000000000000600052604160045260246000fd5b610a7d82610a34565b810181811067ffffffffffffffff82111715610a9c57610a9b610a45565b5b80604052505050565b6000610aaf6109b3565b9050610abb8282610a74565b919050565b600067ffffffffffffffff821115610adb57610ada610a45565b5b610ae482610a34565b9050602081019050919050565b82818337600083830152505050565b6000610b13610b0e84610ac0565b610aa5565b905082815260208101848484011115610b2f57610b2e610a2f565b5b610b3a848285610af1565b509392505050565b600082601f830112610b5757610b56610a2a565b5b8135610b67848260208601610b00565b91505092915050565b60008060408385031215610b8757610b866109bd565b5b600083013567ffffffffffffffff811115610ba557610ba46109c2565b5b610bb185828601610b42565b9250506020610bc2858286016109e8565b9150509250929050565b600073ffffffffffffffffffffffffffffffffffffffff82169050919050565b6000819050919050565b6000610c11610c0c610c0784610bcc565b610bec565b610bcc565b9050919050565b6000610c2382610bf6565b9050919050565b6000610c3582610c18565b9050919050565b610c4581610c2a565b82525050565b6000602082019050610c606000830184610c3c565b92915050565b6000610c7182610bcc565b9050919050565b610c8181610c66565b82525050565b600081519050919050565b600082825260208201905092915050565b60005b83811015610cc1578082015181840152602081019050610ca6565b60008484015250505050565b6000610cd882610c87565b610ce28185610c92565b9350610cf2818560208601610ca3565b610cfb81610a34565b840191505092915050565b610d0f816109c7565b82525050565b600060a083016000830151610d2d6000860182610c78565b5060208301518482036020860152610d458282610ccd565b9150506040830151610d5a6040860182610d06565b506060830151610d6d6060860182610d06565b506080830151610d806080860182610d06565b508091505092915050565b60006020820190508181036000830152610da58184610d15565b905092915050565b7f4e487b7100000000000000000000000000000000000000000000000000000000600052603260045260246000fd5b7f4e487b7100000000000000000000000000000000000000000000000000000000600052601160045260246000fd5b6000610e16826109c7565b9150610e21836109c7565b9250828201905080821115610e3957610e38610ddc565b5b92915050565b6000610e4a826109c7565b9150610e55836109c7565b9250828202610e63816109c7565b91508282048414831517610e7a57610e79610ddc565b5b5092915050565b600081905092915050565b50565b6000610e9c600083610e81565b9150610ea782610e8c565b600082019050919050565b6000610ebd82610e8f565b9150819050919050565b7f4e487b7100000000000000000000000000000000000000000000000000000000600052602260045260246000fd5b60006002820490506001821680610f0e57607f821691505b602082108103610f2157610f20610ec7565b5b50919050565b60008190508160005260206000209050919050565b60006020601f8301049050919050565b600082821b905092915050565b600060088302610f897fffffffffffffffffffffffffffffffffffffffffffffffffffffffffffffffff82610f4c565b610f938683610f4c565b95508019841693508086168417925050509392505050565b6000610fc6610fc1610fbc846109c7565b610bec565b6109c7565b9050919050565b6000819050919050565b610fe083610fab565b610ff4610fec82610fcd565b848454610f59565b825550505050565b600090565b611009610ffc565b611014818484610fd7565b505050565b5b818110156110385761102d600082611001565b60018101905061101a565b5050565b601f82111561107d5761104e81610f27565b61105784610f3c565b81016020851015611066578190505b61107a61107285610f3c565b830182611019565b50505b505050565b600082821c905092915050565b60006110a060001984600802611082565b1980831691505092915050565b60006110b9838361108f565b9150826002028217905092915050565b6110d282610c87565b67ffffffffffffffff8111156110eb576110ea610a45565b5b6110f58254610ef6565b61110082828561103c565b600060209050601f8311600181146111335760008415611121578287015190505b61112b85826110ad565b865550611193565b601f19841661114186610f27565b60005b8281101561116957848901518255600182019150602085019450602081019050611144565b868310156111865784890151611182601f89168261108f565b8355505b6001600288020188555050505b505050505050565b7f4e487b7100000000000000000000000000000000000000000000000000000000600052601260045260246000fd5b60006111d5826109c7565b91506111e0836109c7565b9250826111f0576111ef61119b565b5b828204905092915050565b600069ffffffffffffffffffff82169050919050565b61121a816111fb565b811461122557600080fd5b50565b60008151905061123781611211565b92915050565b6000819050919050565b6112508161123d565b811461125b57600080fd5b50565b60008151905061126d81611247565b92915050565b600081519050611282816109d1565b92915050565b600080600080600060a086880312156112a4576112a36109bd565b5b60006112b288828901611228565b95505060206112c38882890161125e565b94505060406112d488828901611273565b93505060606112e588828901611273565b92505060806112f688828901611228565b9150509295509295909350565b600061130e8261123d565b91506113198361123d565b9250826113295761132861119b565b5b600160000383147f80000000000000000000000000000000000000000000000000000000000000008314161561136257611361610ddc565b5b828205905092915050565b60006113788261123d565b91506113838361123d565b92508282026113918161123d565b91507f800000000000000000000000000000000000000000000000000000000000000084146000841216156113c9576113c8610ddc565b5b82820584148315176113de576113dd610ddc565b5b509291505056fea2646970667358221220b2da6889fd32ed45d5201279a619a6069cc80425923a145843a80fc9fb118df764736f6c63430008120033",
  "devdoc": {
    "kind": "dev",
    "methods": {},
    "version": 1
  },
  "userdoc": {
    "kind": "user",
    "methods": {},
    "version": 1
  },
  "storageLayout": {
    "storage": [
      {
        "astId": 122,
        "contract": "contracts/Donate.sol:Donate",
        "label": "priceFeed",
        "offset": 0,
        "slot": "0",
        "type": "t_contract(AggregatorV3Interface)45"
      },
      {
        "astId": 126,
        "contract": "contracts/Donate.sol:Donate",
        "label": "Donation",
        "offset": 0,
        "slot": "1",
        "type": "t_array(t_struct(Info)119_storage)dyn_storage"
      }
    ],
    "types": {
      "t_address": {
        "encoding": "inplace",
        "label": "address",
        "numberOfBytes": "20"
      },
      "t_array(t_struct(Info)119_storage)dyn_storage": {
        "base": "t_struct(Info)119_storage",
        "encoding": "dynamic_array",
        "label": "struct Donate.Info[]",
        "numberOfBytes": "32"
      },
      "t_contract(AggregatorV3Interface)45": {
        "encoding": "inplace",
        "label": "contract AggregatorV3Interface",
        "numberOfBytes": "20"
      },
      "t_string_storage": {
        "encoding": "bytes",
        "label": "string",
        "numberOfBytes": "32"
      },
      "t_struct(Info)119_storage": {
        "encoding": "inplace",
        "label": "struct Donate.Info",
        "members": [
          {
            "astId": 110,
            "contract": "contracts/Donate.sol:Donate",
            "label": "_address",
            "offset": 0,
            "slot": "0",
            "type": "t_address"
          },
          {
            "astId": 112,
            "contract": "contracts/Donate.sol:Donate",
            "label": "name",
            "offset": 0,
            "slot": "1",
            "type": "t_string_storage"
          },
          {
            "astId": 114,
            "contract": "contracts/Donate.sol:Donate",
            "label": "LimitInUSD",
            "offset": 0,
            "slot": "2",
            "type": "t_uint256"
          },
          {
            "astId": 116,
            "contract": "contracts/Donate.sol:Donate",
            "label": "AmountInWEI",
            "offset": 0,
            "slot": "3",
            "type": "t_uint256"
          },
          {
            "astId": 118,
            "contract": "contracts/Donate.sol:Donate",
            "label": "Timestamp",
            "offset": 0,
            "slot": "4",
            "type": "t_uint256"
          }
        ],
        "numberOfBytes": "160"
      },
      "t_uint256": {
        "encoding": "inplace",
        "label": "uint256",
        "numberOfBytes": "32"
      }
    }
  }
}