{
  "address": "0xB9177257d5ECf9E1341B0A30BBe4C4BDbC5B97BD",
  "abi": [
    {
      "inputs": [
        {
          "internalType": "address",
          "name": "feed",
          "type": "address"
        }
      ],
      "stateMutability": "nonpayable",
      "type": "constructor"
    },
    {
      "inputs": [],
      "name": "AcceptanceRequirements",
      "type": "error"
    },
    {
      "inputs": [],
      "name": "CallFail",
      "type": "error"
    },
    {
      "inputs": [],
      "name": "IDNotFound",
      "type": "error"
    },
    {
      "inputs": [],
      "name": "NotFunder",
      "type": "error"
    },
    {
      "anonymous": false,
      "inputs": [
        {
          "indexed": false,
          "internalType": "uint256",
          "name": "amount",
          "type": "uint256"
        },
        {
          "indexed": false,
          "internalType": "address",
          "name": "sender",
          "type": "address"
        }
      ],
      "name": "Success",
      "type": "event"
    },
    {
      "stateMutability": "payable",
      "type": "fallback"
    },
    {
      "inputs": [
        {
          "internalType": "string",
          "name": "_name",
          "type": "string"
        },
        {
          "internalType": "uint256",
          "name": "_LimitInUSD",
          "type": "uint256"
        }
      ],
      "name": "create",
      "outputs": [],
      "stateMutability": "nonpayable",
      "type": "function"
    },
    {
      "inputs": [
        {
          "internalType": "uint256",
          "name": "Index",
          "type": "uint256"
        }
      ],
      "name": "getDonation",
      "outputs": [
        {
          "components": [
            {
              "internalType": "address",
              "name": "_address",
              "type": "address"
            },
            {
              "internalType": "string",
              "name": "name",
              "type": "string"
            },
            {
              "internalType": "uint256",
              "name": "LimitInUSD",
              "type": "uint256"
            },
            {
              "internalType": "uint256",
              "name": "AmountInWEI",
              "type": "uint256"
            },
            {
              "internalType": "uint256",
              "name": "Timestamp",
              "type": "uint256"
            }
          ],
          "internalType": "struct Donate.Info",
          "name": "",
          "type": "tuple"
        }
      ],
      "stateMutability": "view",
      "type": "function"
    },
    {
      "inputs": [],
      "name": "getPriceFeed",
      "outputs": [
        {
          "internalType": "contract AggregatorV3Interface",
          "name": "",
          "type": "address"
        }
      ],
      "stateMutability": "view",
      "type": "function"
    },
    {
      "inputs": [
        {
          "internalType": "uint256",
          "name": "_id",
          "type": "uint256"
        }
      ],
      "name": "participate",
      "outputs": [],
      "stateMutability": "payable",
      "type": "function"
    },
    {
      "inputs": [
        {
          "internalType": "uint256",
          "name": "_id",
          "type": "uint256"
        }
      ],
      "name": "withdraw",
      "outputs": [],
      "stateMutability": "nonpayable",
      "type": "function"
    },
    {
      "stateMutability": "payable",
      "type": "receive"
    }
  ],
  "transactionHash": "0xcd4fff4807f6179f870ce0e9c78e05e359f467d00bda21bfd3fa848ddd1486a0",
  "args": [
    "0x694AA1769357215DE4FAC081bf1f309aDC325306"
  ],
  "numDeployments": 3,
  "solcInputHash": "fb45226bad66307783e6f64c25189f7b",
  "bytecode": "0x60806040523480156200001157600080fd5b50604051620015c6380380620015c68339818101604052810190620000379190620000e8565b806000806101000a81548173ffffffffffffffffffffffffffffffffffffffff021916908373ffffffffffffffffffffffffffffffffffffffff160217905550506200011a565b600080fd5b600073ffffffffffffffffffffffffffffffffffffffff82169050919050565b6000620000b08262000083565b9050919050565b620000c281620000a3565b8114620000ce57600080fd5b50565b600081519050620000e281620000b7565b92915050565b6000602082840312156200010157620001006200007e565b5b60006200011184828501620000d1565b91505092915050565b61149c806200012a6000396000f3fe60806040526004361061004e5760003560e01c80632e1a7d4d1461005757806346f81a8714610080578063845c9306146100a95780639e87a5cd146100c5578063ef07a81f146100f057610055565b3661005557005b005b34801561006357600080fd5b5061007e60048036038101906100799190610a37565b61012d565b005b34801561008c57600080fd5b506100a760048036038101906100a29190610baa565b610510565b005b6100c360048036038101906100be9190610a37565b61061b565b005b3480156100d157600080fd5b506100da610707565b6040516100e79190610c85565b60405180910390f35b3480156100fc57600080fd5b5061011760048036038101906101129190610a37565b610730565b6040516101249190610dc5565b60405180910390f35b80600073ffffffffffffffffffffffffffffffffffffffff166001828154811061015a57610159610de7565b5b906000526020600020906005020160000160009054906101000a900473ffffffffffffffffffffffffffffffffffffffff1673ffffffffffffffffffffffffffffffffffffffff16036101d9576040517f844a752f00000000000000000000000000000000000000000000000000000000815260040160405180910390fd5b813373ffffffffffffffffffffffffffffffffffffffff166001828154811061020557610204610de7565b5b906000526020600020906005020160000160009054906101000a900473ffffffffffffffffffffffffffffffffffffffff1673ffffffffffffffffffffffffffffffffffffffff1614610284576040517fa598aebe00000000000000000000000000000000000000000000000000000000815260040160405180910390fd5b8262093a806001828154811061029d5761029c610de7565b5b9060005260206000209060050201600401546102b99190610e45565b42111580156103575750670de0b6b3a7640000600182815481106102e0576102df610de7565b5b9060005260206000209060050201600201546102fc9190610e79565b61035460008054906101000a900473ffffffffffffffffffffffffffffffffffffffff166001848154811061033457610333610de7565b5b90600052602060002090600502016003015461087290919063ffffffff16565b11155b1561038e576040517f7dca185f00000000000000000000000000000000000000000000000000000000815260040160405180910390fd5b6000600185815481106103a4576103a3610de7565b5b9060005260206000209060050201600301549050600185815481106103cc576103cb610de7565b5b9060005260206000209060050201600080820160006101000a81549073ffffffffffffffffffffffffffffffffffffffff0219169055600182016000610412919061094b565b600282016000905560038201600090556004820160009055505060003373ffffffffffffffffffffffffffffffffffffffff168260405161045290610eec565b60006040518083038185875af1925050503d806000811461048f576040519150601f19603f3d011682016040523d82523d6000602084013e610494565b606091505b50509050806104cf576040517f12fcf49600000000000000000000000000000000000000000000000000000000815260040160405180910390fd5b7f2539b4cc2b40f86b739ed651d0bf19a6b3db2c37cde9a6de9bd20707832c26778233604051610500929190610f1f565b60405180910390a1505050505050565b61051861098b565b8281602001819052508181604001818152505033816000019073ffffffffffffffffffffffffffffffffffffffff16908173ffffffffffffffffffffffffffffffffffffffff168152505042816080018181525050600181908060018154018082558091505060019003906000526020600020906005020160009091909190915060008201518160000160006101000a81548173ffffffffffffffffffffffffffffffffffffffff021916908373ffffffffffffffffffffffffffffffffffffffff16021790555060208201518160010190816105f5919061114a565b506040820151816002015560608201518160030155608082015181600401555050505050565b80600073ffffffffffffffffffffffffffffffffffffffff166001828154811061064857610647610de7565b5b906000526020600020906005020160000160009054906101000a900473ffffffffffffffffffffffffffffffffffffffff1673ffffffffffffffffffffffffffffffffffffffff16036106c7576040517f844a752f00000000000000000000000000000000000000000000000000000000815260040160405180910390fd5b34600183815481106106dc576106db610de7565b5b906000526020600020906005020160030160008282546106fc9190610e45565b925050819055505050565b60008060009054906101000a900473ffffffffffffffffffffffffffffffffffffffff16905090565b61073861098b565b6001828154811061074c5761074b610de7565b5b90600052602060002090600502016040518060a00160405290816000820160009054906101000a900473ffffffffffffffffffffffffffffffffffffffff1673ffffffffffffffffffffffffffffffffffffffff1673ffffffffffffffffffffffffffffffffffffffff1681526020016001820180546107cb90610f77565b80601f01602080910402602001604051908101604052809291908181526020018280546107f790610f77565b80156108445780601f1061081957610100808354040283529160200191610844565b820191906000526020600020905b81548152906001019060200180831161082757829003601f168201915b5050505050815260200160028201548152602001600382015481526020016004820154815250509050919050565b60008061087e836108a8565b9050670de0b6b3a764000084826108959190610e79565b61089f919061124b565b91505092915050565b6000808273ffffffffffffffffffffffffffffffffffffffff1663feaf968c6040518163ffffffff1660e01b815260040160a060405180830381865afa1580156108f6573d6000803e3d6000fd5b505050506040513d601f19601f8201168201806040525081019061091a9190611309565b505050915050670de0b6b3a76400006305f5e100826109399190611384565b61094391906113ee565b915050919050565b50805461095790610f77565b6000825580601f106109695750610988565b601f01602090049060005260206000209081019061098791906109d0565b5b50565b6040518060a00160405280600073ffffffffffffffffffffffffffffffffffffffff168152602001606081526020016000815260200160008152602001600081525090565b5b808211156109e95760008160009055506001016109d1565b5090565b6000604051905090565b600080fd5b600080fd5b6000819050919050565b610a1481610a01565b8114610a1f57600080fd5b50565b600081359050610a3181610a0b565b92915050565b600060208284031215610a4d57610a4c6109f7565b5b6000610a5b84828501610a22565b91505092915050565b600080fd5b600080fd5b6000601f19601f8301169050919050565b7f4e487b7100000000000000000000000000000000000000000000000000000000600052604160045260246000fd5b610ab782610a6e565b810181811067ffffffffffffffff82111715610ad657610ad5610a7f565b5b80604052505050565b6000610ae96109ed565b9050610af58282610aae565b919050565b600067ffffffffffffffff821115610b1557610b14610a7f565b5b610b1e82610a6e565b9050602081019050919050565b82818337600083830152505050565b6000610b4d610b4884610afa565b610adf565b905082815260208101848484011115610b6957610b68610a69565b5b610b74848285610b2b565b509392505050565b600082601f830112610b9157610b90610a64565b5b8135610ba1848260208601610b3a565b91505092915050565b60008060408385031215610bc157610bc06109f7565b5b600083013567ffffffffffffffff811115610bdf57610bde6109fc565b5b610beb85828601610b7c565b9250506020610bfc85828601610a22565b9150509250929050565b600073ffffffffffffffffffffffffffffffffffffffff82169050919050565b6000819050919050565b6000610c4b610c46610c4184610c06565b610c26565b610c06565b9050919050565b6000610c5d82610c30565b9050919050565b6000610c6f82610c52565b9050919050565b610c7f81610c64565b82525050565b6000602082019050610c9a6000830184610c76565b92915050565b6000610cab82610c06565b9050919050565b610cbb81610ca0565b82525050565b600081519050919050565b600082825260208201905092915050565b60005b83811015610cfb578082015181840152602081019050610ce0565b60008484015250505050565b6000610d1282610cc1565b610d1c8185610ccc565b9350610d2c818560208601610cdd565b610d3581610a6e565b840191505092915050565b610d4981610a01565b82525050565b600060a083016000830151610d676000860182610cb2565b5060208301518482036020860152610d7f8282610d07565b9150506040830151610d946040860182610d40565b506060830151610da76060860182610d40565b506080830151610dba6080860182610d40565b508091505092915050565b60006020820190508181036000830152610ddf8184610d4f565b905092915050565b7f4e487b7100000000000000000000000000000000000000000000000000000000600052603260045260246000fd5b7f4e487b7100000000000000000000000000000000000000000000000000000000600052601160045260246000fd5b6000610e5082610a01565b9150610e5b83610a01565b9250828201905080821115610e7357610e72610e16565b5b92915050565b6000610e8482610a01565b9150610e8f83610a01565b9250828202610e9d81610a01565b91508282048414831517610eb457610eb3610e16565b5b5092915050565b600081905092915050565b50565b6000610ed6600083610ebb565b9150610ee182610ec6565b600082019050919050565b6000610ef782610ec9565b9150819050919050565b610f0a81610a01565b82525050565b610f1981610ca0565b82525050565b6000604082019050610f346000830185610f01565b610f416020830184610f10565b9392505050565b7f4e487b7100000000000000000000000000000000000000000000000000000000600052602260045260246000fd5b60006002820490506001821680610f8f57607f821691505b602082108103610fa257610fa1610f48565b5b50919050565b60008190508160005260206000209050919050565b60006020601f8301049050919050565b600082821b905092915050565b60006008830261100a7fffffffffffffffffffffffffffffffffffffffffffffffffffffffffffffffff82610fcd565b6110148683610fcd565b95508019841693508086168417925050509392505050565b600061104761104261103d84610a01565b610c26565b610a01565b9050919050565b6000819050919050565b6110618361102c565b61107561106d8261104e565b848454610fda565b825550505050565b600090565b61108a61107d565b611095818484611058565b505050565b5b818110156110b9576110ae600082611082565b60018101905061109b565b5050565b601f8211156110fe576110cf81610fa8565b6110d884610fbd565b810160208510156110e7578190505b6110fb6110f385610fbd565b83018261109a565b50505b505050565b600082821c905092915050565b600061112160001984600802611103565b1980831691505092915050565b600061113a8383611110565b9150826002028217905092915050565b61115382610cc1565b67ffffffffffffffff81111561116c5761116b610a7f565b5b6111768254610f77565b6111818282856110bd565b600060209050601f8311600181146111b457600084156111a2578287015190505b6111ac858261112e565b865550611214565b601f1984166111c286610fa8565b60005b828110156111ea578489015182556001820191506020850194506020810190506111c5565b868310156112075784890151611203601f891682611110565b8355505b6001600288020188555050505b505050505050565b7f4e487b7100000000000000000000000000000000000000000000000000000000600052601260045260246000fd5b600061125682610a01565b915061126183610a01565b9250826112715761127061121c565b5b828204905092915050565b600069ffffffffffffffffffff82169050919050565b61129b8161127c565b81146112a657600080fd5b50565b6000815190506112b881611292565b92915050565b6000819050919050565b6112d1816112be565b81146112dc57600080fd5b50565b6000815190506112ee816112c8565b92915050565b60008151905061130381610a0b565b92915050565b600080600080600060a08688031215611325576113246109f7565b5b6000611333888289016112a9565b9550506020611344888289016112df565b9450506040611355888289016112f4565b9350506060611366888289016112f4565b9250506080611377888289016112a9565b9150509295509295909350565b600061138f826112be565b915061139a836112be565b9250826113aa576113a961121c565b5b600160000383147f8000000000000000000000000000000000000000000000000000000000000000831416156113e3576113e2610e16565b5b828205905092915050565b60006113f9826112be565b9150611404836112be565b9250828202611412816112be565b91507f8000000000000000000000000000000000000000000000000000000000000000841460008412161561144a57611449610e16565b5b828205841483151761145f5761145e610e16565b5b509291505056fea26469706673582212206f186593824d96299b88666fbf08bbde595ad4e9cb7d517ddfe689a9872573e164736f6c63430008120033",
  "devdoc": {
    "kind": "dev",
    "methods": {},
    "version": 1
  },
  "userdoc": {
    "kind": "user",
    "methods": {},
    "version": 1
  },
  "storageLayout": {
    "storage": [
      {
        "astId": 122,
        "contract": "contracts/Donate.sol:Donate",
        "label": "priceFeed",
        "offset": 0,
        "slot": "0",
        "type": "t_contract(AggregatorV3Interface)45"
      },
      {
        "astId": 126,
        "contract": "contracts/Donate.sol:Donate",
        "label": "Donation",
        "offset": 0,
        "slot": "1",
        "type": "t_array(t_struct(Info)119_storage)dyn_storage"
      }
    ],
    "types": {
      "t_address": {
        "encoding": "inplace",
        "label": "address",
        "numberOfBytes": "20"
      },
      "t_array(t_struct(Info)119_storage)dyn_storage": {
        "base": "t_struct(Info)119_storage",
        "encoding": "dynamic_array",
        "label": "struct Donate.Info[]",
        "numberOfBytes": "32"
      },
      "t_contract(AggregatorV3Interface)45": {
        "encoding": "inplace",
        "label": "contract AggregatorV3Interface",
        "numberOfBytes": "20"
      },
      "t_string_storage": {
        "encoding": "bytes",
        "label": "string",
        "numberOfBytes": "32"
      },
      "t_struct(Info)119_storage": {
        "encoding": "inplace",
        "label": "struct Donate.Info",
        "members": [
          {
            "astId": 110,
            "contract": "contracts/Donate.sol:Donate",
            "label": "_address",
            "offset": 0,
            "slot": "0",
            "type": "t_address"
          },
          {
            "astId": 112,
            "contract": "contracts/Donate.sol:Donate",
            "label": "name",
            "offset": 0,
            "slot": "1",
            "type": "t_string_storage"
          },
          {
            "astId": 114,
            "contract": "contracts/Donate.sol:Donate",
            "label": "LimitInUSD",
            "offset": 0,
            "slot": "2",
            "type": "t_uint256"
          },
          {
            "astId": 116,
            "contract": "contracts/Donate.sol:Donate",
            "label": "AmountInWEI",
            "offset": 0,
            "slot": "3",
            "type": "t_uint256"
          },
          {
            "astId": 118,
            "contract": "contracts/Donate.sol:Donate",
            "label": "Timestamp",
            "offset": 0,
            "slot": "4",
            "type": "t_uint256"
          }
        ],
        "numberOfBytes": "160"
      },
      "t_uint256": {
        "encoding": "inplace",
        "label": "uint256",
        "numberOfBytes": "32"
      }
    }
  }
}